{
  "_format": "hh-sol-artifact-1",
  "contractName": "Controller",
  "sourceName": "contracts/Controller.sol",
  "abi": [
    {
      "inputs": [
        {
          "internalType": "contract IVault",
          "name": "vault",
          "type": "address"
        },
        {
          "internalType": "bytes32",
          "name": "poolId",
          "type": "bytes32"
        }
      ],
      "stateMutability": "nonpayable",
      "type": "constructor"
    },
    {
      "anonymous": false,
      "inputs": [
        {
          "indexed": true,
          "internalType": "address",
          "name": "previousOwner",
          "type": "address"
        },
        {
          "indexed": true,
          "internalType": "address",
          "name": "newOwner",
          "type": "address"
        }
      ],
      "name": "OwnershipTransferred",
      "type": "event"
    },
    {
      "inputs": [
        {
          "internalType": "address",
          "name": "token",
          "type": "address"
        },
        {
          "internalType": "uint256",
          "name": "amount",
          "type": "uint256"
        }
      ],
      "name": "approveVault",
      "outputs": [],
      "stateMutability": "nonpayable",
      "type": "function"
    },
    {
      "inputs": [
        {
          "internalType": "address[]",
          "name": "recipients",
          "type": "address[]"
        },
        {
          "internalType": "uint256[]",
          "name": "amounts",
          "type": "uint256[]"
        },
        {
          "internalType": "contract IERC20",
          "name": "token",
          "type": "address"
        }
      ],
      "name": "batchTransfer",
      "outputs": [],
      "stateMutability": "nonpayable",
      "type": "function"
    },
    {
      "inputs": [],
      "name": "getJoinExitEnabled",
      "outputs": [
        {
          "internalType": "bool",
          "name": "",
          "type": "bool"
        }
      ],
      "stateMutability": "view",
      "type": "function"
    },
    {
      "inputs": [],
      "name": "getPoolId",
      "outputs": [
        {
          "internalType": "bytes32",
          "name": "",
          "type": "bytes32"
        }
      ],
      "stateMutability": "view",
      "type": "function"
    },
    {
      "inputs": [],
      "name": "getPoolSpecialization",
      "outputs": [
        {
          "internalType": "address",
          "name": "",
          "type": "address"
        },
        {
          "internalType": "enum IVault.PoolSpecialization",
          "name": "",
          "type": "uint8"
        }
      ],
      "stateMutability": "view",
      "type": "function"
    },
    {
      "inputs": [
        {
          "internalType": "contract IERC20",
          "name": "token",
          "type": "address"
        }
      ],
      "name": "getPoolTokenInfo",
      "outputs": [
        {
          "internalType": "uint256",
          "name": "",
          "type": "uint256"
        },
        {
          "internalType": "uint256",
          "name": "",
          "type": "uint256"
        },
        {
          "internalType": "uint256",
          "name": "",
          "type": "uint256"
        },
        {
          "internalType": "address",
          "name": "",
          "type": "address"
        }
      ],
      "stateMutability": "view",
      "type": "function"
    },
    {
      "inputs": [],
      "name": "getPoolTokens",
      "outputs": [
        {
          "internalType": "address[]",
          "name": "",
          "type": "address[]"
        },
        {
          "internalType": "uint256[]",
          "name": "",
          "type": "uint256[]"
        },
        {
          "internalType": "uint256",
          "name": "",
          "type": "uint256"
        }
      ],
      "stateMutability": "view",
      "type": "function"
    },
    {
      "inputs": [],
      "name": "getSwapEnabled",
      "outputs": [
        {
          "internalType": "bool",
          "name": "",
          "type": "bool"
        }
      ],
      "stateMutability": "view",
      "type": "function"
    },
    {
      "inputs": [],
      "name": "getVault",
      "outputs": [
        {
          "internalType": "contract IVault",
          "name": "",
          "type": "address"
        }
      ],
      "stateMutability": "view",
      "type": "function"
    },
    {
      "inputs": [
        {
          "internalType": "address[]",
          "name": "PoolTokens",
          "type": "address[]"
        },
        {
          "internalType": "uint256[]",
          "name": "amountsIn",
          "type": "uint256[]"
        }
      ],
      "name": "initPool",
      "outputs": [],
      "stateMutability": "payable",
      "type": "function"
    },
    {
      "inputs": [],
      "name": "owner",
      "outputs": [
        {
          "internalType": "address",
          "name": "",
          "type": "address"
        }
      ],
      "stateMutability": "view",
      "type": "function"
    },
    {
      "inputs": [],
      "name": "renounceOwnership",
      "outputs": [],
      "stateMutability": "nonpayable",
      "type": "function"
    },
    {
      "inputs": [
        {
          "internalType": "bool",
          "name": "joinExitEnabled",
          "type": "bool"
        }
      ],
      "name": "setJoinExitEnabled",
      "outputs": [],
      "stateMutability": "nonpayable",
      "type": "function"
    },
    {
      "inputs": [
        {
          "internalType": "bool",
          "name": "swapEnabled",
          "type": "bool"
        }
      ],
      "name": "setSwapEnabled",
      "outputs": [],
      "stateMutability": "nonpayable",
      "type": "function"
    },
    {
      "inputs": [
        {
          "internalType": "address",
          "name": "newOwner",
          "type": "address"
        }
      ],
      "name": "transferOwnership",
      "outputs": [],
      "stateMutability": "nonpayable",
      "type": "function"
    },
    {
      "inputs": [
        {
          "internalType": "address",
          "name": "token",
          "type": "address"
        },
        {
          "internalType": "uint256",
          "name": "amount",
          "type": "uint256"
        }
      ],
      "name": "transferToken",
      "outputs": [],
      "stateMutability": "nonpayable",
      "type": "function"
    },
    {
      "inputs": [
        {
          "internalType": "contract IERC20",
          "name": "token",
          "type": "address"
        },
        {
          "internalType": "uint256",
          "name": "amount",
          "type": "uint256"
        }
      ],
      "name": "withdrawFromPool",
      "outputs": [],
      "stateMutability": "nonpayable",
      "type": "function"
    }
  ],
  "bytecode": "0x60c060405260008060146101000a81548160ff0219169083151502179055503480156200002b57600080fd5b50604051620036b3380380620036b3833981810160405281019062000051919062000404565b62000062336200024b60201b60201c565b6000801b81141562000174573373ffffffffffffffffffffffffffffffffffffffff16635ed312826040518163ffffffff1660e01b815260040160206040518083038186803b158015620000b557600080fd5b505afa158015620000ca573d6000803e3d6000fd5b505050506040513d601f19601f82011682018060405250810190620000f091906200036b565b73ffffffffffffffffffffffffffffffffffffffff166338fff2d06040518163ffffffff1660e01b815260040160206040518083038186803b1580156200013657600080fd5b505afa1580156200014b573d6000803e3d6000fd5b505050506040513d601f19601f82011682018060405250810190620001719190620003d8565b90505b8173ffffffffffffffffffffffffffffffffffffffff1663f6c00927826040518263ffffffff1660e01b8152600401620001af919062000456565b604080518083038186803b158015620001c757600080fd5b505afa158015620001dc573d6000803e3d6000fd5b505050506040513d601f19601f8201168201806040525081019062000202919062000397565b50508173ffffffffffffffffffffffffffffffffffffffff1660808173ffffffffffffffffffffffffffffffffffffffff1660601b815250508060a08181525050505062000524565b60008060009054906101000a900473ffffffffffffffffffffffffffffffffffffffff169050816000806101000a81548173ffffffffffffffffffffffffffffffffffffffff021916908373ffffffffffffffffffffffffffffffffffffffff1602179055508173ffffffffffffffffffffffffffffffffffffffff168173ffffffffffffffffffffffffffffffffffffffff167f8be0079c531659141344cd1fd0a4f28419497f9722a3daafe3b4186f6b6457e060405160405180910390a35050565b6000815190506200032081620004c5565b92915050565b6000815190506200033781620004df565b92915050565b6000815190506200034e81620004f9565b92915050565b600081519050620003658162000513565b92915050565b6000602082840312156200037e57600080fd5b60006200038e848285016200030f565b91505092915050565b60008060408385031215620003ab57600080fd5b6000620003bb858286016200030f565b9250506020620003ce8582860162000354565b9150509250929050565b600060208284031215620003eb57600080fd5b6000620003fb8482850162000326565b91505092915050565b600080604083850312156200041857600080fd5b600062000428858286016200033d565b92505060206200043b8582860162000326565b9150509250929050565b620004508162000487565b82525050565b60006020820190506200046d600083018462000445565b92915050565b60006200048082620004a5565b9050919050565b6000819050919050565b60006200049e8262000473565b9050919050565b600073ffffffffffffffffffffffffffffffffffffffff82169050919050565b620004d08162000473565b8114620004dc57600080fd5b50565b620004ea8162000487565b8114620004f657600080fd5b50565b620005048162000491565b81146200051057600080fd5b50565b600381106200052157600080fd5b50565b60805160601c60a0516130fa620005b9600039806104f4528061055952806106ab528061080652806109475280610c885280611154528061123352806113c952806116845280611740528061187c52508061051d528061066f52806107ca528061090b5280610ab95280610b245280610c4c52806112dc528061138d52806116485280611704528061184052506130fa6000f3fe6080604052600436106100fe5760003560e01c80638da5cb5b11610095578063c399a9a411610064578063c399a9a414610302578063d95219f31461032e578063de3d2b2d1461034a578063e01af92c14610373578063f2fde38b1461039c576100fe565b80638da5cb5b1461025c578063b6d2473714610287578063bb0a64b6146102b0578063c1bf9e58146102d9576100fe565b806367e0e076116100d157806367e0e076146101ad578063715018a6146101ed57806389c06568146102045780638d928af814610231576100fe565b80631072cbea1461010357806338fff2d01461012c57806341e45a201461015757806347bc4d9214610182575b600080fd5b34801561010f57600080fd5b5061012a60048036038101906101259190612092565b6103c5565b005b34801561013857600080fd5b506101416104f0565b60405161014e9190612a92565b60405180910390f35b34801561016357600080fd5b5061016c610518565b6040516101799190612a77565b60405180910390f35b34801561018e57600080fd5b5061019761066a565b6040516101a49190612a77565b60405180910390f35b3480156101b957600080fd5b506101d460048036038101906101cf919061228a565b6107bc565b6040516101e49493929190612c82565b60405180910390f35b3480156101f957600080fd5b506102026108b2565b005b34801561021057600080fd5b506102196108ff565b60405161022893929190612a10565b60405180910390f35b34801561023d57600080fd5b50610246610ab5565b6040516102539190612b44565b60405180910390f35b34801561026857600080fd5b50610271610add565b60405161027e9190612943565b60405180910390f35b34801561029357600080fd5b506102ae60048036038101906102a99190612092565b610b06565b005b3480156102bc57600080fd5b506102d760048036038101906102d2919061213a565b610bb8565b005b3480156102e557600080fd5b5061030060048036038101906102fb91906122b3565b611083565b005b34801561030e57600080fd5b50610317611385565b6040516103259291906129be565b60405180910390f35b610348600480360381019061034391906120ce565b611467565b005b34801561035657600080fd5b50610371600480360381019061036c9190612238565b611700565b005b34801561037f57600080fd5b5061039a60048036038101906103959190612238565b61183c565b005b3480156103a857600080fd5b506103c360048036038101906103be919061202d565b611978565b005b808273ffffffffffffffffffffffffffffffffffffffff1663dd62ed3e33306040518363ffffffff1660e01b815260040161040192919061295e565b60206040518083038186803b15801561041957600080fd5b505afa15801561042d573d6000803e3d6000fd5b505050506040513d601f19601f8201168201806040525081019061045191906122ef565b106104eb578173ffffffffffffffffffffffffffffffffffffffff166323b872dd3330846040518463ffffffff1660e01b815260040161049393929190612987565b602060405180830381600087803b1580156104ad57600080fd5b505af11580156104c1573d6000803e3d6000fd5b505050506040513d601f19601f820116820180604052508101906104e59190612261565b506104ec565b5b5050565b60007f0000000000000000000000000000000000000000000000000000000000000000905090565b6000807f000000000000000000000000000000000000000000000000000000000000000073ffffffffffffffffffffffffffffffffffffffff1663f6c009277f00000000000000000000000000000000000000000000000000000000000000006040518263ffffffff1660e01b81526004016105949190612a92565b604080518083038186803b1580156105ab57600080fd5b505afa1580156105bf573d6000803e3d6000fd5b505050506040513d601f19601f820116820180604052508101906105e39190612056565b5090508073ffffffffffffffffffffffffffffffffffffffff166341e45a206040518163ffffffff1660e01b815260040160206040518083038186803b15801561062c57600080fd5b505afa158015610640573d6000803e3d6000fd5b505050506040513d601f19601f820116820180604052508101906106649190612261565b91505090565b6000807f000000000000000000000000000000000000000000000000000000000000000073ffffffffffffffffffffffffffffffffffffffff1663f6c009277f00000000000000000000000000000000000000000000000000000000000000006040518263ffffffff1660e01b81526004016106e69190612a92565b604080518083038186803b1580156106fd57600080fd5b505afa158015610711573d6000803e3d6000fd5b505050506040513d601f19601f820116820180604052508101906107359190612056565b5090508073ffffffffffffffffffffffffffffffffffffffff166347bc4d926040518163ffffffff1660e01b815260040160206040518083038186803b15801561077e57600080fd5b505afa158015610792573d6000803e3d6000fd5b505050506040513d601f19601f820116820180604052508101906107b69190612261565b91505090565b6000806000806000806000807f000000000000000000000000000000000000000000000000000000000000000073ffffffffffffffffffffffffffffffffffffffff1663b05f8e487f00000000000000000000000000000000000000000000000000000000000000008b6040518363ffffffff1660e01b8152600401610843929190612af9565b60806040518083038186803b15801561085b57600080fd5b505afa15801561086f573d6000803e3d6000fd5b505050506040513d601f19601f820116820180604052508101906108939190612318565b9350935093509350838383839750975097509750505050509193509193565b6108f33373ffffffffffffffffffffffffffffffffffffffff166108d4610add565b73ffffffffffffffffffffffffffffffffffffffff16146101aa611a01565b6108fd6000611a14565b565b606080600060608060007f000000000000000000000000000000000000000000000000000000000000000073ffffffffffffffffffffffffffffffffffffffff1663f94d46687f00000000000000000000000000000000000000000000000000000000000000006040518263ffffffff1660e01b81526004016109829190612a92565b60006040518083038186803b15801561099a57600080fd5b505afa1580156109ae573d6000803e3d6000fd5b505050506040513d6000823e3d601f19601f820116820180604052508101906109d791906121b9565b8093508194508295505050506060835167ffffffffffffffff811180156109fd57600080fd5b50604051908082528060200260200182016040528015610a2c5781602001602082028036833780820191505090505b50905060005b8451811015610aa257848181518110610a4757fe5b6020026020010151828281518110610a5b57fe5b602002602001019073ffffffffffffffffffffffffffffffffffffffff16908173ffffffffffffffffffffffffffffffffffffffff16815250508080600101915050610a32565b5080838396509650965050505050909192565b60007f0000000000000000000000000000000000000000000000000000000000000000905090565b60008060009054906101000a900473ffffffffffffffffffffffffffffffffffffffff16905090565b8173ffffffffffffffffffffffffffffffffffffffff1663095ea7b37f0000000000000000000000000000000000000000000000000000000000000000836040518363ffffffff1660e01b8152600401610b619291906129e7565b602060405180830381600087803b158015610b7b57600080fd5b505af1158015610b8f573d6000803e3d6000fd5b505050506040513d601f19601f82011682018060405250810190610bb39190612261565b505050565b610bf93373ffffffffffffffffffffffffffffffffffffffff16610bda610add565b73ffffffffffffffffffffffffffffffffffffffff16146101aa611a01565b600060149054906101000a900460ff16610c48576040517f08c379a0000000000000000000000000000000000000000000000000000000008152600401610c3f90612c32565b60405180910390fd5b60007f000000000000000000000000000000000000000000000000000000000000000073ffffffffffffffffffffffffffffffffffffffff1663f6c009277f00000000000000000000000000000000000000000000000000000000000000006040518263ffffffff1660e01b8152600401610cc39190612a92565b604080518083038186803b158015610cda57600080fd5b505afa158015610cee573d6000803e3d6000fd5b505050506040513d601f19601f82011682018060405250810190610d129190612056565b5090508073ffffffffffffffffffffffffffffffffffffffff166341e45a206040518163ffffffff1660e01b815260040160206040518083038186803b158015610d5b57600080fd5b505afa158015610d6f573d6000803e3d6000fd5b505050506040513d601f19601f82011682018060405250810190610d939190612261565b15610dd3576040517f08c379a0000000000000000000000000000000000000000000000000000000008152600401610dca90612bb2565b60405180910390fd5b8073ffffffffffffffffffffffffffffffffffffffff166347bc4d926040518163ffffffff1660e01b815260040160206040518083038186803b158015610e1957600080fd5b505afa158015610e2d573d6000803e3d6000fd5b505050506040513d601f19601f82011682018060405250810190610e519190612261565b15610e91576040517f08c379a0000000000000000000000000000000000000000000000000000000008152600401610e8890612c12565b60405180910390fd5b8251845114610ed5576040517f08c379a0000000000000000000000000000000000000000000000000000000008152600401610ecc90612bd2565b60405180910390fd5b60005b845181101561107c578273ffffffffffffffffffffffffffffffffffffffff1663a9059cbb868381518110610f0957fe5b6020026020010151868481518110610f1d57fe5b60200260200101516040518363ffffffff1660e01b8152600401610f429291906129e7565b602060405180830381600087803b158015610f5c57600080fd5b505af1158015610f70573d6000803e3d6000fd5b505050506040513d601f19601f82011682018060405250810190610f949190612261565b610fd3576040517f08c379a0000000000000000000000000000000000000000000000000000000008152600401610fca90612bf2565b60405180910390fd5b61106f6040518060400160405280600c81526020017f5472616e7366657272656420000000000000000000000000000000000000000081525085838151811061101857fe5b60200260200101516040518060400160405280600481526020017f20746f200000000000000000000000000000000000000000000000000000000081525088858151811061106257fe5b6020026020010151611ad8565b8080600101915050610ed8565b5050505050565b6110c43373ffffffffffffffffffffffffffffffffffffffff166110a5610add565b73ffffffffffffffffffffffffffffffffffffffff16146101aa611a01565b6060600267ffffffffffffffff811180156110de57600080fd5b5060405190808252806020026020018201604052801561111857816020015b611105611cec565b8152602001906001900390816110fd5790505b50905060008160008151811061112a57fe5b602002602001015160000190600281111561114157fe5b9081600281111561114e57fe5b815250507f00000000000000000000000000000000000000000000000000000000000000008160008151811061118057fe5b60200260200101516020018181525050818160008151811061119e57fe5b6020026020010151606001818152505082816000815181106111bc57fe5b60200260200101516040019073ffffffffffffffffffffffffffffffffffffffff16908173ffffffffffffffffffffffffffffffffffffffff168152505060028160018151811061120957fe5b602002602001015160000190600281111561122057fe5b9081600281111561122d57fe5b815250507f00000000000000000000000000000000000000000000000000000000000000008160018151811061125f57fe5b6020026020010151602001818152505060008160018151811061127e57fe5b60200260200101516060018181525050828160018151811061129c57fe5b60200260200101516040019073ffffffffffffffffffffffffffffffffffffffff16908173ffffffffffffffffffffffffffffffffffffffff16815250507f000000000000000000000000000000000000000000000000000000000000000073ffffffffffffffffffffffffffffffffffffffff1663e6c46092826040518263ffffffff1660e01b81526004016113339190612a55565b600060405180830381600087803b15801561134d57600080fd5b505af1158015611361573d6000803e3d6000fd5b505050506001600060146101000a81548160ff021916908315150217905550505050565b6000806000807f000000000000000000000000000000000000000000000000000000000000000073ffffffffffffffffffffffffffffffffffffffff1663f6c009277f00000000000000000000000000000000000000000000000000000000000000006040518263ffffffff1660e01b81526004016114049190612a92565b604080518083038186803b15801561141b57600080fd5b505afa15801561142f573d6000803e3d6000fd5b505050506040513d601f19601f820116820180604052508101906114539190612056565b809250819350505081819350935050509091565b6060825167ffffffffffffffff8111801561148157600080fd5b506040519080825280602002602001820160405280156114b05781602001602082028036833780820191505090505b50905060005b8351811015611526578381815181106114cb57fe5b60200260200101518282815181106114df57fe5b602002602001019073ffffffffffffffffffffffffffffffffffffffff16908173ffffffffffffffffffffffffffffffffffffffff168152505080806001019150506114b6565b506060825160010167ffffffffffffffff8111801561154457600080fd5b506040519080825280602002602001820160405280156115735781602001602082028036833780820191505090505b5090506dfffffffffffffffffffffffca4408160008151811061159257fe5b60200260200101818152505060005b83518110156115e6578381815181106115b657fe5b60200260200101518260018301815181106115cd57fe5b60200260200101818152505080806001019150506115a1565b506000606081856040516020016115fe929190612c52565b604051602081830303815290604052905061161881611b7a565b611620611d38565b60405180608001604052808681526020018581526020018381526020016000151581525090507f000000000000000000000000000000000000000000000000000000000000000073ffffffffffffffffffffffffffffffffffffffff1663b95cac287f00000000000000000000000000000000000000000000000000000000000000003030856040518563ffffffff1660e01b81526004016116c59493929190612aad565b600060405180830381600087803b1580156116df57600080fd5b505af11580156116f3573d6000803e3d6000fd5b5050505050505050505050565b60007f000000000000000000000000000000000000000000000000000000000000000073ffffffffffffffffffffffffffffffffffffffff1663f6c009277f00000000000000000000000000000000000000000000000000000000000000006040518263ffffffff1660e01b815260040161177b9190612a92565b604080518083038186803b15801561179257600080fd5b505afa1580156117a6573d6000803e3d6000fd5b505050506040513d601f19601f820116820180604052508101906117ca9190612056565b5090508073ffffffffffffffffffffffffffffffffffffffff1663de3d2b2d836040518263ffffffff1660e01b81526004016118069190612a77565b600060405180830381600087803b15801561182057600080fd5b505af1158015611834573d6000803e3d6000fd5b505050505050565b60007f000000000000000000000000000000000000000000000000000000000000000073ffffffffffffffffffffffffffffffffffffffff1663f6c009277f00000000000000000000000000000000000000000000000000000000000000006040518263ffffffff1660e01b81526004016118b79190612a92565b604080518083038186803b1580156118ce57600080fd5b505afa1580156118e2573d6000803e3d6000fd5b505050506040513d601f19601f820116820180604052508101906119069190612056565b5090508073ffffffffffffffffffffffffffffffffffffffff1663e01af92c836040518263ffffffff1660e01b81526004016119429190612a77565b600060405180830381600087803b15801561195c57600080fd5b505af1158015611970573d6000803e3d6000fd5b505050505050565b6119b93373ffffffffffffffffffffffffffffffffffffffff1661199a610add565b73ffffffffffffffffffffffffffffffffffffffff16146101aa611a01565b6119f5600073ffffffffffffffffffffffffffffffffffffffff168273ffffffffffffffffffffffffffffffffffffffff1614156101ab611a01565b6119fe81611a14565b50565b81611a1057611a0f81611c13565b5b5050565b60008060009054906101000a900473ffffffffffffffffffffffffffffffffffffffff169050816000806101000a81548173ffffffffffffffffffffffffffffffffffffffff021916908373ffffffffffffffffffffffffffffffffffffffff1602179055508173ffffffffffffffffffffffffffffffffffffffff168173ffffffffffffffffffffffffffffffffffffffff167f8be0079c531659141344cd1fd0a4f28419497f9722a3daafe3b4186f6b6457e060405160405180910390a35050565b611b7484848484604051602401611af29493929190612b5f565b6040516020818303038152906040527f7c4632a4000000000000000000000000000000000000000000000000000000007bffffffffffffffffffffffffffffffffffffffffffffffffffffffff19166020820180517bffffffffffffffffffffffffffffffffffffffffffffffffffffffff8381831617835250505050611c26565b50505050565b611c1081604051602401611b8e9190612b22565b6040516020818303038152906040527f0be77f56000000000000000000000000000000000000000000000000000000007bffffffffffffffffffffffffffffffffffffffffffffffffffffffff19166020820180517bffffffffffffffffffffffffffffffffffffffffffffffffffffffff8381831617835250505050611c26565b50565b611c23816242414c60e81b611c40565b50565b611c3d81611c35611cc0611ce1565b63ffffffff16565b50565b60008160e81c62ffffff1690506030600a840601600a840493506030600a850601600a850494506030600a8606018360081b60230160181b8160101b8360081b850101810160c81b7f08c379a000000000000000000000000000000000000000000000000000000000600052602060045260076024528060445260646000fd5b60006a636f6e736f6c652e6c6f679050600080835160208501845afa505050565b611d62819050919050565b604051806080016040528060006002811115611d0457fe5b815260200160008019168152602001600073ffffffffffffffffffffffffffffffffffffffff168152602001600081525090565b60405180608001604052806060815260200160608152602001606081526020016000151581525090565bfe5b600081359050611d7381613058565b92915050565b600081519050611d8881613058565b92915050565b600082601f830112611d9f57600080fd5b8135611db2611dad82612cf4565b612cc7565b91508181835260208401935060208101905083856020840282011115611dd757600080fd5b60005b83811015611e075781611ded8882611d64565b845260208401935060208301925050600181019050611dda565b5050505092915050565b600082601f830112611e2257600080fd5b8151611e35611e3082612d1c565b612cc7565b91508181835260208401935060208101905083856020840282011115611e5a57600080fd5b60005b83811015611e8a5781611e708882611fd9565b845260208401935060208301925050600181019050611e5d565b5050505092915050565b600082601f830112611ea557600080fd5b8135611eb8611eb382612d44565b612cc7565b91508181835260208401935060208101905083856020840282011115611edd57600080fd5b60005b83811015611f0d5781611ef38882612003565b845260208401935060208301925050600181019050611ee0565b5050505092915050565b600082601f830112611f2857600080fd5b8151611f3b611f3682612d44565b612cc7565b91508181835260208401935060208101905083856020840282011115611f6057600080fd5b60005b83811015611f905781611f768882612018565b845260208401935060208301925050600181019050611f63565b5050505092915050565b600081359050611fa98161306f565b92915050565b600081519050611fbe8161306f565b92915050565b600081359050611fd381613086565b92915050565b600081519050611fe881613086565b92915050565b600081519050611ffd8161309d565b92915050565b600081359050612012816130ad565b92915050565b600081519050612027816130ad565b92915050565b60006020828403121561203f57600080fd5b600061204d84828501611d64565b91505092915050565b6000806040838503121561206957600080fd5b600061207785828601611d79565b925050602061208885828601611fee565b9150509250929050565b600080604083850312156120a557600080fd5b60006120b385828601611d64565b92505060206120c485828601612003565b9150509250929050565b600080604083850312156120e157600080fd5b600083013567ffffffffffffffff8111156120fb57600080fd5b61210785828601611d8e565b925050602083013567ffffffffffffffff81111561212457600080fd5b61213085828601611e94565b9150509250929050565b60008060006060848603121561214f57600080fd5b600084013567ffffffffffffffff81111561216957600080fd5b61217586828701611d8e565b935050602084013567ffffffffffffffff81111561219257600080fd5b61219e86828701611e94565b92505060406121af86828701611fc4565b9150509250925092565b6000806000606084860312156121ce57600080fd5b600084015167ffffffffffffffff8111156121e857600080fd5b6121f486828701611e11565b935050602084015167ffffffffffffffff81111561221157600080fd5b61221d86828701611f17565b925050604061222e86828701612018565b9150509250925092565b60006020828403121561224a57600080fd5b600061225884828501611f9a565b91505092915050565b60006020828403121561227357600080fd5b600061228184828501611faf565b91505092915050565b60006020828403121561229c57600080fd5b60006122aa84828501611fc4565b91505092915050565b600080604083850312156122c657600080fd5b60006122d485828601611fc4565b92505060206122e585828601612003565b9150509250929050565b60006020828403121561230157600080fd5b600061230f84828501612018565b91505092915050565b6000806000806080858703121561232e57600080fd5b600061233c87828801612018565b945050602061234d87828801612018565b935050604061235e87828801612018565b925050606061236f87828801611d79565b91505092959194509250565b600061238783836123ea565b60208301905092915050565b600061239f838361268c565b60208301905092915050565b60006123b783836128d0565b60808301905092915050565b60006123cf8383612925565b60208301905092915050565b6123e481612f34565b82525050565b6123f381612eaa565b82525050565b61240281612eaa565b82525050565b600061241382612dac565b61241d8185612e33565b935061242883612d6c565b8060005b83811015612459578151612440888261237b565b975061244b83612dee565b92505060018101905061242c565b5085935050505092915050565b600061247182612db7565b61247b8185612e22565b935061248683612d7c565b8060005b838110156124b757815161249e8882612393565b97506124a983612dfb565b92505060018101905061248a565b5085935050505092915050565b60006124cf82612dc2565b6124d98185612e44565b93506124e483612d8c565b8060005b838110156125155781516124fc88826123ab565b975061250783612e08565b9250506001810190506124e8565b5085935050505092915050565b600061252d82612dcd565b6125378185612e55565b935061254283612d9c565b8060005b8381101561257357815161255a88826123c3565b975061256583612e15565b925050600181019050612546565b5085935050505092915050565b600061258b82612dcd565b6125958185612e66565b93506125a083612d9c565b8060005b838110156125d15781516125b888826123c3565b97506125c383612e15565b9250506001810190506125a4565b5085935050505092915050565b6125e781612ebc565b82525050565b6125f681612ebc565b82525050565b61260581612ec8565b82525050565b61261481612ec8565b82525050565b600061262582612dd8565b61262f8185612e77565b935061263f818560208601612ffa565b6126488161302d565b840191505092915050565b600061265e82612dd8565b6126688185612e88565b9350612678818560208601612ffa565b6126818161302d565b840191505092915050565b61269581612f46565b82525050565b6126a481612f6a565b82525050565b6126b381612f6a565b82525050565b6126c281612f8e565b82525050565b6126d181612fb2565b82525050565b6126e081612fc4565b82525050565b60006126f182612de3565b6126fb8185612e99565b935061270b818560208601612ffa565b6127148161302d565b840191505092915050565b600061272c601483612e99565b91507f4a6f696e2f4578697420697320656e61626c65640000000000000000000000006000830152602082019050919050565b600061276c601583612e99565b91507f4172726179206c656e677468206d69736d6174636800000000000000000000006000830152602082019050919050565b60006127ac600f83612e99565b91507f5472616e73666572206661696c656400000000000000000000000000000000006000830152602082019050919050565b60006127ec600c83612e99565b91507f5377617020656e61626c656400000000000000000000000000000000000000006000830152602082019050919050565b600061282c601883612e99565b91507f737461626c65207769746864726177206e6f7420646f6e6500000000000000006000830152602082019050919050565b6000608083016000830151848203600086015261287c8282612466565b915050602083015184820360208601526128968282612522565b915050604083015184820360408601526128b0828261261a565b91505060608301516128c560608601826125de565b508091505092915050565b6080820160008201516128e660008501826126c8565b5060208201516128f960208501826125fc565b50604082015161290c604085018261269b565b50606082015161291f6060850182612925565b50505050565b61292e81612f2a565b82525050565b61293d81612f2a565b82525050565b600060208201905061295860008301846123f9565b92915050565b600060408201905061297360008301856123db565b61298060208301846123f9565b9392505050565b600060608201905061299c60008301866123db565b6129a960208301856123f9565b6129b66040830184612934565b949350505050565b60006040820190506129d360008301856123f9565b6129e060208301846126d7565b9392505050565b60006040820190506129fc60008301856123f9565b612a096020830184612934565b9392505050565b60006060820190508181036000830152612a2a8186612408565b90508181036020830152612a3e8185612580565b9050612a4d6040830184612934565b949350505050565b60006020820190508181036000830152612a6f81846124c4565b905092915050565b6000602082019050612a8c60008301846125ed565b92915050565b6000602082019050612aa7600083018461260b565b92915050565b6000608082019050612ac2600083018761260b565b612acf60208301866123f9565b612adc60408301856123f9565b8181036060830152612aee818461285f565b905095945050505050565b6000604082019050612b0e600083018561260b565b612b1b60208301846126aa565b9392505050565b60006020820190508181036000830152612b3c8184612653565b905092915050565b6000602082019050612b5960008301846126b9565b92915050565b60006080820190508181036000830152612b7981876126e6565b9050612b886020830186612934565b8181036040830152612b9a81856126e6565b9050612ba960608301846123f9565b95945050505050565b60006020820190508181036000830152612bcb8161271f565b9050919050565b60006020820190508181036000830152612beb8161275f565b9050919050565b60006020820190508181036000830152612c0b8161279f565b9050919050565b60006020820190508181036000830152612c2b816127df565b9050919050565b60006020820190508181036000830152612c4b8161281f565b9050919050565b6000604082019050612c676000830185612934565b8181036020830152612c798184612580565b90509392505050565b6000608082019050612c976000830187612934565b612ca46020830186612934565b612cb16040830185612934565b612cbe60608301846123f9565b95945050505050565b6000604051905081810181811067ffffffffffffffff82111715612cea57600080fd5b8060405250919050565b600067ffffffffffffffff821115612d0b57600080fd5b602082029050602081019050919050565b600067ffffffffffffffff821115612d3357600080fd5b602082029050602081019050919050565b600067ffffffffffffffff821115612d5b57600080fd5b602082029050602081019050919050565b6000819050602082019050919050565b6000819050602082019050919050565b6000819050602082019050919050565b6000819050602082019050919050565b600081519050919050565b600081519050919050565b600081519050919050565b600081519050919050565b600081519050919050565b600081519050919050565b6000602082019050919050565b6000602082019050919050565b6000602082019050919050565b6000602082019050919050565b600082825260208201905092915050565b600082825260208201905092915050565b600082825260208201905092915050565b600082825260208201905092915050565b600082825260208201905092915050565b600082825260208201905092915050565b600082825260208201905092915050565b600082825260208201905092915050565b6000612eb582612f0a565b9050919050565b60008115159050919050565b6000819050919050565b6000612edd82612eaa565b9050919050565b6000819050612ef28261303e565b919050565b6000819050612f058261304b565b919050565b600073ffffffffffffffffffffffffffffffffffffffff82169050919050565b6000819050919050565b6000612f3f82612fd6565b9050919050565b6000612f5182612f58565b9050919050565b6000612f6382612f0a565b9050919050565b6000612f7582612f7c565b9050919050565b6000612f8782612f0a565b9050919050565b6000612f9982612fa0565b9050919050565b6000612fab82612f0a565b9050919050565b6000612fbd82612ee4565b9050919050565b6000612fcf82612ef7565b9050919050565b6000612fe182612fe8565b9050919050565b6000612ff382612f0a565b9050919050565b60005b83811015613018578082015181840152602081019050612ffd565b83811115613027576000848401525b50505050565b6000601f19601f8301169050919050565b6003811061304857fe5b50565b6003811061305557fe5b50565b61306181612eaa565b811461306c57600080fd5b50565b61307881612ebc565b811461308357600080fd5b50565b61308f81612ed2565b811461309a57600080fd5b50565b600381106130aa57600080fd5b50565b6130b681612f2a565b81146130c157600080fd5b5056fea2646970667358221220ef1f17a1436e444ce86657ed795ed023f5312b4f7884c37b10ec4dabadee1f6d64736f6c63430007010033",
  "linkReferences": {},
  "deployedLinkReferences": {}
}